{
  "contractName": "NFT",
  "abi": [
    {
      "inputs": [],
      "stateMutability": "nonpayable",
      "type": "constructor"
    },
    {
      "anonymous": false,
      "inputs": [
        {
          "indexed": true,
          "internalType": "address",
          "name": "owner",
          "type": "address"
        },
        {
          "indexed": true,
          "internalType": "address",
          "name": "approved",
          "type": "address"
        },
        {
          "indexed": true,
          "internalType": "uint256",
          "name": "tokenId",
          "type": "uint256"
        }
      ],
      "name": "Approval",
      "type": "event"
    },
    {
      "anonymous": false,
      "inputs": [
        {
          "indexed": true,
          "internalType": "address",
          "name": "owner",
          "type": "address"
        },
        {
          "indexed": true,
          "internalType": "address",
          "name": "operator",
          "type": "address"
        },
        {
          "indexed": false,
          "internalType": "bool",
          "name": "approved",
          "type": "bool"
        }
      ],
      "name": "ApprovalForAll",
      "type": "event"
    },
    {
      "anonymous": false,
      "inputs": [
        {
          "indexed": true,
          "internalType": "address",
          "name": "from",
          "type": "address"
        },
        {
          "indexed": true,
          "internalType": "address",
          "name": "to",
          "type": "address"
        },
        {
          "indexed": true,
          "internalType": "uint256",
          "name": "tokenId",
          "type": "uint256"
        }
      ],
      "name": "Transfer",
      "type": "event"
    },
    {
      "inputs": [],
      "name": "admin",
      "outputs": [
        {
          "internalType": "address",
          "name": "",
          "type": "address"
        }
      ],
      "stateMutability": "view",
      "type": "function"
    },
    {
      "inputs": [
        {
          "internalType": "address",
          "name": "to",
          "type": "address"
        },
        {
          "internalType": "uint256",
          "name": "tokenId",
          "type": "uint256"
        }
      ],
      "name": "approve",
      "outputs": [],
      "stateMutability": "nonpayable",
      "type": "function"
    },
    {
      "inputs": [
        {
          "internalType": "address",
          "name": "owner",
          "type": "address"
        }
      ],
      "name": "balanceOf",
      "outputs": [
        {
          "internalType": "uint256",
          "name": "",
          "type": "uint256"
        }
      ],
      "stateMutability": "view",
      "type": "function"
    },
    {
      "inputs": [
        {
          "internalType": "uint256",
          "name": "tokenId",
          "type": "uint256"
        }
      ],
      "name": "getApproved",
      "outputs": [
        {
          "internalType": "address",
          "name": "",
          "type": "address"
        }
      ],
      "stateMutability": "view",
      "type": "function"
    },
    {
      "inputs": [
        {
          "internalType": "address",
          "name": "owner",
          "type": "address"
        },
        {
          "internalType": "address",
          "name": "operator",
          "type": "address"
        }
      ],
      "name": "isApprovedForAll",
      "outputs": [
        {
          "internalType": "bool",
          "name": "",
          "type": "bool"
        }
      ],
      "stateMutability": "view",
      "type": "function"
    },
    {
      "inputs": [],
      "name": "name",
      "outputs": [
        {
          "internalType": "string",
          "name": "",
          "type": "string"
        }
      ],
      "stateMutability": "view",
      "type": "function"
    },
    {
      "inputs": [],
      "name": "nextTokenId",
      "outputs": [
        {
          "internalType": "uint256",
          "name": "",
          "type": "uint256"
        }
      ],
      "stateMutability": "view",
      "type": "function"
    },
    {
      "inputs": [
        {
          "internalType": "uint256",
          "name": "tokenId",
          "type": "uint256"
        }
      ],
      "name": "ownerOf",
      "outputs": [
        {
          "internalType": "address",
          "name": "",
          "type": "address"
        }
      ],
      "stateMutability": "view",
      "type": "function"
    },
    {
      "inputs": [
        {
          "internalType": "address",
          "name": "from",
          "type": "address"
        },
        {
          "internalType": "address",
          "name": "to",
          "type": "address"
        },
        {
          "internalType": "uint256",
          "name": "tokenId",
          "type": "uint256"
        }
      ],
      "name": "safeTransferFrom",
      "outputs": [],
      "stateMutability": "nonpayable",
      "type": "function"
    },
    {
      "inputs": [
        {
          "internalType": "address",
          "name": "from",
          "type": "address"
        },
        {
          "internalType": "address",
          "name": "to",
          "type": "address"
        },
        {
          "internalType": "uint256",
          "name": "tokenId",
          "type": "uint256"
        },
        {
          "internalType": "bytes",
          "name": "_data",
          "type": "bytes"
        }
      ],
      "name": "safeTransferFrom",
      "outputs": [],
      "stateMutability": "nonpayable",
      "type": "function"
    },
    {
      "inputs": [
        {
          "internalType": "address",
          "name": "operator",
          "type": "address"
        },
        {
          "internalType": "bool",
          "name": "approved",
          "type": "bool"
        }
      ],
      "name": "setApprovalForAll",
      "outputs": [],
      "stateMutability": "nonpayable",
      "type": "function"
    },
    {
      "inputs": [
        {
          "internalType": "bytes4",
          "name": "interfaceId",
          "type": "bytes4"
        }
      ],
      "name": "supportsInterface",
      "outputs": [
        {
          "internalType": "bool",
          "name": "",
          "type": "bool"
        }
      ],
      "stateMutability": "view",
      "type": "function"
    },
    {
      "inputs": [],
      "name": "symbol",
      "outputs": [
        {
          "internalType": "string",
          "name": "",
          "type": "string"
        }
      ],
      "stateMutability": "view",
      "type": "function"
    },
    {
      "inputs": [
        {
          "internalType": "uint256",
          "name": "tokenId",
          "type": "uint256"
        }
      ],
      "name": "tokenURI",
      "outputs": [
        {
          "internalType": "string",
          "name": "",
          "type": "string"
        }
      ],
      "stateMutability": "view",
      "type": "function"
    },
    {
      "inputs": [
        {
          "internalType": "address",
          "name": "from",
          "type": "address"
        },
        {
          "internalType": "address",
          "name": "to",
          "type": "address"
        },
        {
          "internalType": "uint256",
          "name": "tokenId",
          "type": "uint256"
        }
      ],
      "name": "transferFrom",
      "outputs": [],
      "stateMutability": "nonpayable",
      "type": "function"
    },
    {
      "inputs": [
        {
          "internalType": "address",
          "name": "to",
          "type": "address"
        }
      ],
      "name": "mint",
      "outputs": [],
      "stateMutability": "nonpayable",
      "type": "function"
    }
  ],
  "bytecode": "0x60806040523480156200001157600080fd5b506040518060400160405280600781526020017f4e465420415050000000000000000000000000000000000000000000000000008152506040518060400160405280600381526020017f4e46540000000000000000000000000000000000000000000000000000000000815250816000908051906020019062000096929190620000f9565b508060019080519060200190620000af929190620000f9565b50505033600760006101000a81548173ffffffffffffffffffffffffffffffffffffffff021916908373ffffffffffffffffffffffffffffffffffffffff1602179055506200020e565b8280546200010790620001d8565b90600052602060002090601f0160209004810192826200012b576000855562000177565b82601f106200014657805160ff191683800117855562000177565b8280016001018555821562000177579182015b828111156200017657825182559160200191906001019062000159565b5b5090506200018691906200018a565b5090565b5b80821115620001a55760008160009055506001016200018b565b5090565b7f4e487b7100000000000000000000000000000000000000000000000000000000600052602260045260246000fd5b60006002820490506001821680620001f157607f821691505b60208210811415620002085762000207620001a9565b5b50919050565b6128f6806200021e6000396000f3fe608060405234801561001057600080fd5b50600436106101005760003560e01c806370a0823111610097578063b88d4fde11610066578063b88d4fde146102ab578063c87b56dd146102c7578063e985e9c5146102f7578063f851a4401461032757610100565b806370a082311461022357806375794a3c1461025357806395d89b4114610271578063a22cb4651461028f57610100565b806323b872dd116100d357806323b872dd1461019f57806342842e0e146101bb5780636352211e146101d75780636a6278421461020757610100565b806301ffc9a71461010557806306fdde0314610135578063081812fc14610153578063095ea7b314610183575b600080fd5b61011f600480360381019061011a91906117e3565b610345565b60405161012c919061182b565b60405180910390f35b61013d610427565b60405161014a91906118df565b60405180910390f35b61016d60048036038101906101689190611937565b6104b9565b60405161017a91906119a5565b60405180910390f35b61019d600480360381019061019891906119ec565b61053e565b005b6101b960048036038101906101b49190611a2c565b610656565b005b6101d560048036038101906101d09190611a2c565b6106b6565b005b6101f160048036038101906101ec9190611937565b6106d6565b6040516101fe91906119a5565b60405180910390f35b610221600480360381019061021c9190611a7f565b610788565b005b61023d60048036038101906102389190611a7f565b61083f565b60405161024a9190611abb565b60405180910390f35b61025b6108f7565b6040516102689190611abb565b60405180910390f35b6102796108fd565b60405161028691906118df565b60405180910390f35b6102a960048036038101906102a49190611b02565b61098f565b005b6102c560048036038101906102c09190611c77565b610b10565b005b6102e160048036038101906102dc9190611937565b610b72565b6040516102ee91906118df565b60405180910390f35b610311600480360381019061030c9190611cfa565b610c19565b60405161031e919061182b565b60405180910390f35b61032f610cad565b60405161033c91906119a5565b60405180910390f35b60007f80ac58cd000000000000000000000000000000000000000000000000000000007bffffffffffffffffffffffffffffffffffffffffffffffffffffffff1916827bffffffffffffffffffffffffffffffffffffffffffffffffffffffff1916148061041057507f5b5e139f000000000000000000000000000000000000000000000000000000007bffffffffffffffffffffffffffffffffffffffffffffffffffffffff1916827bffffffffffffffffffffffffffffffffffffffffffffffffffffffff1916145b80610420575061041f82610cd3565b5b9050919050565b60606000805461043690611d69565b80601f016020809104026020016040519081016040528092919081815260200182805461046290611d69565b80156104af5780601f10610484576101008083540402835291602001916104af565b820191906000526020600020905b81548152906001019060200180831161049257829003601f168201915b5050505050905090565b60006104c482610d3d565b610503576040517f08c379a00000000000000000000000000000000000000000000000000000000081526004016104fa90611e0d565b60405180910390fd5b6004600083815260200190815260200160002060009054906101000a900473ffffffffffffffffffffffffffffffffffffffff169050919050565b6000610549826106d6565b90508073ffffffffffffffffffffffffffffffffffffffff168373ffffffffffffffffffffffffffffffffffffffff1614156105ba576040517f08c379a00000000000000000000000000000000000000000000000000000000081526004016105b190611e9f565b60405180910390fd5b8073ffffffffffffffffffffffffffffffffffffffff166105d9610da9565b73ffffffffffffffffffffffffffffffffffffffff161480610608575061060781610602610da9565b610c19565b5b610647576040517f08c379a000000000000000000000000000000000000000000000000000000000815260040161063e90611f31565b60405180910390fd5b6106518383610db1565b505050565b610667610661610da9565b82610e6a565b6106a6576040517f08c379a000000000000000000000000000000000000000000000000000000000815260040161069d90611fc3565b60405180910390fd5b6106b1838383610f48565b505050565b6106d183838360405180602001604052806000815250610b10565b505050565b6000806002600084815260200190815260200160002060009054906101000a900473ffffffffffffffffffffffffffffffffffffffff169050600073ffffffffffffffffffffffffffffffffffffffff168173ffffffffffffffffffffffffffffffffffffffff16141561077f576040517f08c379a000000000000000000000000000000000000000000000000000000000815260040161077690612055565b60405180910390fd5b80915050919050565b600760009054906101000a900473ffffffffffffffffffffffffffffffffffffffff1673ffffffffffffffffffffffffffffffffffffffff163373ffffffffffffffffffffffffffffffffffffffff1614610818576040517f08c379a000000000000000000000000000000000000000000000000000000000815260040161080f906120c1565b60405180910390fd5b610824816006546111a4565b6006600081548092919061083790612110565b919050555050565b60008073ffffffffffffffffffffffffffffffffffffffff168273ffffffffffffffffffffffffffffffffffffffff1614156108b0576040517f08c379a00000000000000000000000000000000000000000000000000000000081526004016108a7906121cb565b60405180910390fd5b600360008373ffffffffffffffffffffffffffffffffffffffff1673ffffffffffffffffffffffffffffffffffffffff168152602001908152602001600020549050919050565b60065481565b60606001805461090c90611d69565b80601f016020809104026020016040519081016040528092919081815260200182805461093890611d69565b80156109855780601f1061095a57610100808354040283529160200191610985565b820191906000526020600020905b81548152906001019060200180831161096857829003601f168201915b5050505050905090565b610997610da9565b73ffffffffffffffffffffffffffffffffffffffff168273ffffffffffffffffffffffffffffffffffffffff161415610a05576040517f08c379a00000000000000000000000000000000000000000000000000000000081526004016109fc90612237565b60405180910390fd5b8060056000610a12610da9565b73ffffffffffffffffffffffffffffffffffffffff1673ffffffffffffffffffffffffffffffffffffffff16815260200190815260200160002060008473ffffffffffffffffffffffffffffffffffffffff1673ffffffffffffffffffffffffffffffffffffffff16815260200190815260200160002060006101000a81548160ff0219169083151502179055508173ffffffffffffffffffffffffffffffffffffffff16610abf610da9565b73ffffffffffffffffffffffffffffffffffffffff167f17307eab39ab6107e8899845ad3d59bd9653f200f220920489ca2b5937696c3183604051610b04919061182b565b60405180910390a35050565b610b21610b1b610da9565b83610e6a565b610b60576040517f08c379a0000000000000000000000000000000000000000000000000000000008152600401610b5790611fc3565b60405180910390fd5b610b6c848484846111c2565b50505050565b6060610b7d82610d3d565b610bbc576040517f08c379a0000000000000000000000000000000000000000000000000000000008152600401610bb3906122c9565b60405180910390fd5b6000610bc661121e565b90506000815111610be65760405180602001604052806000815250610c11565b80610bf08461123e565b604051602001610c01929190612325565b6040516020818303038152906040525b915050919050565b6000600560008473ffffffffffffffffffffffffffffffffffffffff1673ffffffffffffffffffffffffffffffffffffffff16815260200190815260200160002060008373ffffffffffffffffffffffffffffffffffffffff1673ffffffffffffffffffffffffffffffffffffffff16815260200190815260200160002060009054906101000a900460ff16905092915050565b600760009054906101000a900473ffffffffffffffffffffffffffffffffffffffff1681565b60007f01ffc9a7000000000000000000000000000000000000000000000000000000007bffffffffffffffffffffffffffffffffffffffffffffffffffffffff1916827bffffffffffffffffffffffffffffffffffffffffffffffffffffffff1916149050919050565b60008073ffffffffffffffffffffffffffffffffffffffff166002600084815260200190815260200160002060009054906101000a900473ffffffffffffffffffffffffffffffffffffffff1673ffffffffffffffffffffffffffffffffffffffff1614159050919050565b600033905090565b816004600083815260200190815260200160002060006101000a81548173ffffffffffffffffffffffffffffffffffffffff021916908373ffffffffffffffffffffffffffffffffffffffff160217905550808273ffffffffffffffffffffffffffffffffffffffff16610e24836106d6565b73ffffffffffffffffffffffffffffffffffffffff167f8c5be1e5ebec7d5bd14f71427d1e84f3dd0314c0f7b2291e5b200ac8c7c3b92560405160405180910390a45050565b6000610e7582610d3d565b610eb4576040517f08c379a0000000000000000000000000000000000000000000000000000000008152600401610eab906123bb565b60405180910390fd5b6000610ebf836106d6565b90508073ffffffffffffffffffffffffffffffffffffffff168473ffffffffffffffffffffffffffffffffffffffff161480610f2e57508373ffffffffffffffffffffffffffffffffffffffff16610f16846104b9565b73ffffffffffffffffffffffffffffffffffffffff16145b80610f3f5750610f3e8185610c19565b5b91505092915050565b8273ffffffffffffffffffffffffffffffffffffffff16610f68826106d6565b73ffffffffffffffffffffffffffffffffffffffff1614610fbe576040517f08c379a0000000000000000000000000000000000000000000000000000000008152600401610fb59061244d565b60405180910390fd5b600073ffffffffffffffffffffffffffffffffffffffff168273ffffffffffffffffffffffffffffffffffffffff16141561102e576040517f08c379a0000000000000000000000000000000000000000000000000000000008152600401611025906124df565b60405180910390fd5b61103983838361139f565b611044600082610db1565b6001600360008573ffffffffffffffffffffffffffffffffffffffff1673ffffffffffffffffffffffffffffffffffffffff168152602001908152602001600020600082825461109491906124ff565b925050819055506001600360008473ffffffffffffffffffffffffffffffffffffffff1673ffffffffffffffffffffffffffffffffffffffff16815260200190815260200160002060008282546110eb9190612533565b92505081905550816002600083815260200190815260200160002060006101000a81548173ffffffffffffffffffffffffffffffffffffffff021916908373ffffffffffffffffffffffffffffffffffffffff160217905550808273ffffffffffffffffffffffffffffffffffffffff168473ffffffffffffffffffffffffffffffffffffffff167fddf252ad1be2c89b69c2b068fc378daa952ba7f163c4a11628f55a4df523b3ef60405160405180910390a4505050565b6111be8282604051806020016040528060008152506113a4565b5050565b6111cd848484610f48565b6111d9848484846113ff565b611218576040517f08c379a000000000000000000000000000000000000000000000000000000000815260040161120f906125fb565b60405180910390fd5b50505050565b60606040518060600160405280602a8152602001612897602a9139905090565b60606000821415611286576040518060400160405280600181526020017f3000000000000000000000000000000000000000000000000000000000000000815250905061139a565b600082905060005b600082146112b85780806112a190612110565b915050600a826112b1919061264a565b915061128e565b60008167ffffffffffffffff8111156112d4576112d3611b4c565b5b6040519080825280601f01601f1916602001820160405280156113065781602001600182028036833780820191505090505b5090505b600085146113935760018261131f91906124ff565b9150600a8561132e919061267b565b603061133a9190612533565b60f81b8183815181106113505761134f6126ac565b5b60200101907effffffffffffffffffffffffffffffffffffffffffffffffffffffffffffff1916908160001a905350600a8561138c919061264a565b945061130a565b8093505050505b919050565b505050565b6113ae8383611596565b6113bb60008484846113ff565b6113fa576040517f08c379a00000000000000000000000000000000000000000000000000000000081526004016113f1906125fb565b60405180910390fd5b505050565b60006114208473ffffffffffffffffffffffffffffffffffffffff16611764565b15611589578373ffffffffffffffffffffffffffffffffffffffff1663150b7a02611449610da9565b8786866040518563ffffffff1660e01b815260040161146b9493929190612730565b602060405180830381600087803b15801561148557600080fd5b505af19250505080156114b657506040513d601f19601f820116820180604052508101906114b39190612791565b60015b611539573d80600081146114e6576040519150601f19603f3d011682016040523d82523d6000602084013e6114eb565b606091505b50600081511415611531576040517f08c379a0000000000000000000000000000000000000000000000000000000008152600401611528906125fb565b60405180910390fd5b805181602001fd5b63150b7a0260e01b7bffffffffffffffffffffffffffffffffffffffffffffffffffffffff1916817bffffffffffffffffffffffffffffffffffffffffffffffffffffffff19161491505061158e565b600190505b949350505050565b600073ffffffffffffffffffffffffffffffffffffffff168273ffffffffffffffffffffffffffffffffffffffff161415611606576040517f08c379a00000000000000000000000000000000000000000000000000000000081526004016115fd9061280a565b60405180910390fd5b61160f81610d3d565b1561164f576040517f08c379a000000000000000000000000000000000000000000000000000000000815260040161164690612876565b60405180910390fd5b61165b6000838361139f565b6001600360008473ffffffffffffffffffffffffffffffffffffffff1673ffffffffffffffffffffffffffffffffffffffff16815260200190815260200160002060008282546116ab9190612533565b92505081905550816002600083815260200190815260200160002060006101000a81548173ffffffffffffffffffffffffffffffffffffffff021916908373ffffffffffffffffffffffffffffffffffffffff160217905550808273ffffffffffffffffffffffffffffffffffffffff16600073ffffffffffffffffffffffffffffffffffffffff167fddf252ad1be2c89b69c2b068fc378daa952ba7f163c4a11628f55a4df523b3ef60405160405180910390a45050565b600080823b905060008111915050919050565b6000604051905090565b600080fd5b600080fd5b60007fffffffff0000000000000000000000000000000000000000000000000000000082169050919050565b6117c08161178b565b81146117cb57600080fd5b50565b6000813590506117dd816117b7565b92915050565b6000602082840312156117f9576117f8611781565b5b6000611807848285016117ce565b91505092915050565b60008115159050919050565b61182581611810565b82525050565b6000602082019050611840600083018461181c565b92915050565b600081519050919050565b600082825260208201905092915050565b60005b83811015611880578082015181840152602081019050611865565b8381111561188f576000848401525b50505050565b6000601f19601f8301169050919050565b60006118b182611846565b6118bb8185611851565b93506118cb818560208601611862565b6118d481611895565b840191505092915050565b600060208201905081810360008301526118f981846118a6565b905092915050565b6000819050919050565b61191481611901565b811461191f57600080fd5b50565b6000813590506119318161190b565b92915050565b60006020828403121561194d5761194c611781565b5b600061195b84828501611922565b91505092915050565b600073ffffffffffffffffffffffffffffffffffffffff82169050919050565b600061198f82611964565b9050919050565b61199f81611984565b82525050565b60006020820190506119ba6000830184611996565b92915050565b6119c981611984565b81146119d457600080fd5b50565b6000813590506119e6816119c0565b92915050565b60008060408385031215611a0357611a02611781565b5b6000611a11858286016119d7565b9250506020611a2285828601611922565b9150509250929050565b600080600060608486031215611a4557611a44611781565b5b6000611a53868287016119d7565b9350506020611a64868287016119d7565b9250506040611a7586828701611922565b9150509250925092565b600060208284031215611a9557611a94611781565b5b6000611aa3848285016119d7565b91505092915050565b611ab581611901565b82525050565b6000602082019050611ad06000830184611aac565b92915050565b611adf81611810565b8114611aea57600080fd5b50565b600081359050611afc81611ad6565b92915050565b60008060408385031215611b1957611b18611781565b5b6000611b27858286016119d7565b9250506020611b3885828601611aed565b9150509250929050565b600080fd5b600080fd5b7f4e487b7100000000000000000000000000000000000000000000000000000000600052604160045260246000fd5b611b8482611895565b810181811067ffffffffffffffff82111715611ba357611ba2611b4c565b5b80604052505050565b6000611bb6611777565b9050611bc28282611b7b565b919050565b600067ffffffffffffffff821115611be257611be1611b4c565b5b611beb82611895565b9050602081019050919050565b82818337600083830152505050565b6000611c1a611c1584611bc7565b611bac565b905082815260208101848484011115611c3657611c35611b47565b5b611c41848285611bf8565b509392505050565b600082601f830112611c5e57611c5d611b42565b5b8135611c6e848260208601611c07565b91505092915050565b60008060008060808587031215611c9157611c90611781565b5b6000611c9f878288016119d7565b9450506020611cb0878288016119d7565b9350506040611cc187828801611922565b925050606085013567ffffffffffffffff811115611ce257611ce1611786565b5b611cee87828801611c49565b91505092959194509250565b60008060408385031215611d1157611d10611781565b5b6000611d1f858286016119d7565b9250506020611d30858286016119d7565b9150509250929050565b7f4e487b7100000000000000000000000000000000000000000000000000000000600052602260045260246000fd5b60006002820490506001821680611d8157607f821691505b60208210811415611d9557611d94611d3a565b5b50919050565b7f4552433732313a20617070726f76656420717565727920666f72206e6f6e657860008201527f697374656e7420746f6b656e0000000000000000000000000000000000000000602082015250565b6000611df7602c83611851565b9150611e0282611d9b565b604082019050919050565b60006020820190508181036000830152611e2681611dea565b9050919050565b7f4552433732313a20617070726f76616c20746f2063757272656e74206f776e6560008201527f7200000000000000000000000000000000000000000000000000000000000000602082015250565b6000611e89602183611851565b9150611e9482611e2d565b604082019050919050565b60006020820190508181036000830152611eb881611e7c565b9050919050565b7f4552433732313a20617070726f76652063616c6c6572206973206e6f74206f7760008201527f6e6572206e6f7220617070726f76656420666f7220616c6c0000000000000000602082015250565b6000611f1b603883611851565b9150611f2682611ebf565b604082019050919050565b60006020820190508181036000830152611f4a81611f0e565b9050919050565b7f4552433732313a207472616e736665722063616c6c6572206973206e6f74206f60008201527f776e6572206e6f7220617070726f766564000000000000000000000000000000602082015250565b6000611fad603183611851565b9150611fb882611f51565b604082019050919050565b60006020820190508181036000830152611fdc81611fa0565b9050919050565b7f4552433732313a206f776e657220717565727920666f72206e6f6e657869737460008201527f656e7420746f6b656e0000000000000000000000000000000000000000000000602082015250565b600061203f602983611851565b915061204a82611fe3565b604082019050919050565b6000602082019050818103600083015261206e81612032565b9050919050565b7f4f6e6c792061646d696e00000000000000000000000000000000000000000000600082015250565b60006120ab600a83611851565b91506120b682612075565b602082019050919050565b600060208201905081810360008301526120da8161209e565b9050919050565b7f4e487b7100000000000000000000000000000000000000000000000000000000600052601160045260246000fd5b600061211b82611901565b91507fffffffffffffffffffffffffffffffffffffffffffffffffffffffffffffffff82141561214e5761214d6120e1565b5b600182019050919050565b7f4552433732313a2062616c616e636520717565727920666f7220746865207a6560008201527f726f206164647265737300000000000000000000000000000000000000000000602082015250565b60006121b5602a83611851565b91506121c082612159565b604082019050919050565b600060208201905081810360008301526121e4816121a8565b9050919050565b7f4552433732313a20617070726f766520746f2063616c6c657200000000000000600082015250565b6000612221601983611851565b915061222c826121eb565b602082019050919050565b6000602082019050818103600083015261225081612214565b9050919050565b7f4552433732314d657461646174613a2055524920717565727920666f72206e6f60008201527f6e6578697374656e7420746f6b656e0000000000000000000000000000000000602082015250565b60006122b3602f83611851565b91506122be82612257565b604082019050919050565b600060208201905081810360008301526122e2816122a6565b9050919050565b600081905092915050565b60006122ff82611846565b61230981856122e9565b9350612319818560208601611862565b80840191505092915050565b600061233182856122f4565b915061233d82846122f4565b91508190509392505050565b7f4552433732313a206f70657261746f7220717565727920666f72206e6f6e657860008201527f697374656e7420746f6b656e0000000000000000000000000000000000000000602082015250565b60006123a5602c83611851565b91506123b082612349565b604082019050919050565b600060208201905081810360008301526123d481612398565b9050919050565b7f4552433732313a207472616e73666572206f6620746f6b656e2074686174206960008201527f73206e6f74206f776e0000000000000000000000000000000000000000000000602082015250565b6000612437602983611851565b9150612442826123db565b604082019050919050565b600060208201905081810360008301526124668161242a565b9050919050565b7f4552433732313a207472616e7366657220746f20746865207a65726f2061646460008201527f7265737300000000000000000000000000000000000000000000000000000000602082015250565b60006124c9602483611851565b91506124d48261246d565b604082019050919050565b600060208201905081810360008301526124f8816124bc565b9050919050565b600061250a82611901565b915061251583611901565b925082821015612528576125276120e1565b5b828203905092915050565b600061253e82611901565b915061254983611901565b9250827fffffffffffffffffffffffffffffffffffffffffffffffffffffffffffffffff0382111561257e5761257d6120e1565b5b828201905092915050565b7f4552433732313a207472616e7366657220746f206e6f6e20455243373231526560008201527f63656976657220696d706c656d656e7465720000000000000000000000000000602082015250565b60006125e5603283611851565b91506125f082612589565b604082019050919050565b60006020820190508181036000830152612614816125d8565b9050919050565b7f4e487b7100000000000000000000000000000000000000000000000000000000600052601260045260246000fd5b600061265582611901565b915061266083611901565b9250826126705761266f61261b565b5b828204905092915050565b600061268682611901565b915061269183611901565b9250826126a1576126a061261b565b5b828206905092915050565b7f4e487b7100000000000000000000000000000000000000000000000000000000600052603260045260246000fd5b600081519050919050565b600082825260208201905092915050565b6000612702826126db565b61270c81856126e6565b935061271c818560208601611862565b61272581611895565b840191505092915050565b60006080820190506127456000830187611996565b6127526020830186611996565b61275f6040830185611aac565b818103606083015261277181846126f7565b905095945050505050565b60008151905061278b816117b7565b92915050565b6000602082840312156127a7576127a6611781565b5b60006127b58482850161277c565b91505092915050565b7f4552433732313a206d696e7420746f20746865207a65726f2061646472657373600082015250565b60006127f4602083611851565b91506127ff826127be565b602082019050919050565b60006020820190508181036000830152612823816127e7565b9050919050565b7f4552433732313a20746f6b656e20616c7265616479206d696e74656400000000600082015250565b6000612860601c83611851565b915061286b8261282a565b602082019050919050565b6000602082019050818103600083015261288f81612853565b905091905056fe68747470733a2f2f7365637265742d69736c616e642d31353031302e6865726f6b756170702e636f6d2fa26469706673582212200fb6a21c3f4715e4fdef31753c457b6beab78eb5586f648ab2cb205fb231da6e64736f6c63430008090033",
  "immutableReferences": {},
  "source": "// SPDX-License-Identifier: GPL-3.0\r\npragma solidity >= 0.5 < 0.9;\r\nimport \"@openzeppelin/contracts/token/ERC721/ERC721.sol\";\r\n\r\ncontract NFT is ERC721{\r\n    uint public nextTokenId;\r\n    address public admin;\r\n\r\n    constructor() ERC721('NFT APP','NFT'){\r\n        admin = msg.sender;\r\n    }\r\n    function mint(address to) external{\r\n        require(msg.sender == admin ,'Only admin');\r\n        _safeMint(to, nextTokenId);\r\n        nextTokenId++;\r\n    }\r\n    function _baseURI() internal view override returns(string memory){\r\n        return 'https://secret-island-15010.herokuapp.com/';\r\n    }\r\n}",
  "sourcePath": "F:\\works\\REACT\\Solidity project\\contracts\\NFT.sol",
  "compiler": {
    "name": "solc",
    "version": "0.8.9+commit.e5eed63a.Emscripten.clang"
  },
  "schemaVersion": "3.4.3",
  "updatedAt": "2021-10-31T14:11:55.490Z",
  "devdoc": {
    "kind": "dev",
    "methods": {
      "approve(address,uint256)": {
        "details": "See {IERC721-approve}."
      },
      "balanceOf(address)": {
        "details": "See {IERC721-balanceOf}."
      },
      "getApproved(uint256)": {
        "details": "See {IERC721-getApproved}."
      },
      "isApprovedForAll(address,address)": {
        "details": "See {IERC721-isApprovedForAll}."
      },
      "name()": {
        "details": "See {IERC721Metadata-name}."
      },
      "ownerOf(uint256)": {
        "details": "See {IERC721-ownerOf}."
      },
      "safeTransferFrom(address,address,uint256)": {
        "details": "See {IERC721-safeTransferFrom}."
      },
      "safeTransferFrom(address,address,uint256,bytes)": {
        "details": "See {IERC721-safeTransferFrom}."
      },
      "setApprovalForAll(address,bool)": {
        "details": "See {IERC721-setApprovalForAll}."
      },
      "supportsInterface(bytes4)": {
        "details": "See {IERC165-supportsInterface}."
      },
      "symbol()": {
        "details": "See {IERC721Metadata-symbol}."
      },
      "tokenURI(uint256)": {
        "details": "See {IERC721Metadata-tokenURI}."
      },
      "transferFrom(address,address,uint256)": {
        "details": "See {IERC721-transferFrom}."
      }
    },
    "version": 1
  },
  "userdoc": {
    "kind": "user",
    "methods": {},
    "version": 1
  }
}